:020000040800F2
:1000000000000120A50E00081903000825030008C0
:100010002B0300083103000837030008000000002C
:100020000000000000000000000000003D03000888
:1000300049030008000000005503000861030008A0
:10004000ED0E0008ED0E0008ED0E0008ED0E0008A4
:10005000ED0E0008ED0E0008ED0E0008ED0E000894
:10006000ED0E0008ED0E0008ED0E0008ED0E000884
:10007000ED0E0008ED0E0008ED0E0008ED0E000874
:10008000ED0E0008ED0E0008ED0E0008ED0E000864
:10009000ED0E0008ED0E0008ED0E0008ED0E000854
:1000A000ED0E0008ED0E0008ED0E0008ED0E000844
:1000B000ED0E0008ED0E0008ED0E0008ED0E000834
:1000C000ED0E0008ED0E0008ED0E0008ED0E000824
:1000D000ED0E0008ED0E0008ED0E0008ED0E000814
:1000E000ED0E0008ED0E0008ED0E0008ED0E000804
:1000F000ED0E0008ED0E0008ED0E0008ED0E0008F4
:10010000ED0E0008ED0E0008ED0E0008ED0E0008E3
:10011000ED0E0008ED0E0008ED0E0008ED0E0008D3
:10012000ED0E0008ED0E0008ED0E0008ED0E0008C3
:1001300000000000000000000000000000000000BF
:1001400000000000000000000000000000000000AF
:10015000000000000000000000000000000000009F
:10016000000000000000000000000000000000008F
:10017000000000000000000000000000000000007F
:10018000000000000000000000000000000000006F
:10019000000000000000000000000000000000005F
:1001A000000000000000000000000000000000004F
:1001B000000000000000000000000000000000003F
:1001C000000000000000000000000000000000002F
:1001D000000000000000000000000000000000001F
:0401E0005FF8E0F1F3
:1001E40010B5054C237833B9044B13B10448AFF36D
:1001F40000800123237010BD0C00002000000000CB
:10020400480F000808B5034B1BB103490348AFF37B
:10021400008008BD0000000010000020480F000806
:1002240080B584B000AF00F0D1F800F00FF800F012
:1002340049F80123FB600223BB6000237B60FA685A
:10024400BB6813447B6003233B60F2E780B590B046
:1002540000AF07F1180328220021184600F06AFEB7
:100264003B1D00221A605A609A60DA601A61022308
:10027400BB610123BB621023FB6200237B6307F194
:100284001803184600F004F90346002B01D000F0CF
:100294003BF80F237B600023BB600023FB6000233B
:1002A4003B6100237B613B1D0021184600F054FB99
:1002B4000346002B01D000F027F800BF4037BD46AD
:1002C40080BD000080B483B000AF0E4B9B690D4A23
:1002D40043F0100393610B4B9B6903F010037B60A5
:1002E4007B68084B9B69074A43F004039361054B01
:1002F4009B6903F004033B603B6800BF0C37BD46B9
:1003040080BC70470010024080B400AF00BFBD46FF
:1003140080BC704780B400AF00BFBD4680BC70474E
:1003240080B400AFFEE780B400AFFEE780B400AF56
:10033400FEE780B400AFFEE780B400AF00BFBD4667
:1003440080BC704780B400AF00BFBD4680BC70471E
:1003540080B400AF00BFBD4680BC704780B500AF1D
:1003640000F07AF800BF80BD80B485B000AF154BB3
:100374009B69144A43F001039361124B9B6903F098
:100384000103BB60BB680F4BDB690E4A43F080532B
:10039400D3610C4BDB6903F080537B607B680A4BB1
:1003A4005B68FB60FB6823F0E063FB60FB6843F081
:1003B4000073FB60044AFB68536000BF1437BD46FA
:1003C40080BC7047001002400000014080B500AFBF
:1003D400084B1B68074A43F010031360032000F026
:1003E400F7FC002000F008F8FFF7BEFF00231846D2
:1003F40080BD00BF0020024080B582B000AF7860AD
:10040400124B1A68124B1B7819464FF47A73B3FBDC
:10041400F1F3B2FBF3F3184600F001FD0346002BA1
:1004240001D001230EE07B680F2B0AD800227968E3
:100434004FF0FF3000F0D7FC064A7B6813600023BE
:1004440000E0012318460837BD4680BD080000209F
:10045400040000200000002080B400AF054B1B788E
:100464001A46054B1B681344034A136000BFBD467C
:1004740080BC7047040000202800002080B400AF36
:10048400024B1B681846BD4680BC704728000020FC
:1004940080B586B000AF786000233B617B681B6841
:1004A40003F00103002B00F08780924B5B6803F09C
:1004B4000C03042B0CD08F4B5B6803F00C03082B4C
:1004C40012D18C4B5B6803F48033B3F5803F0BD1BE
:1004D400884B1B6803F40033002B6CD07B685B688B
:1004E400002B68D101232DE27B685B68B3F5803F64
:1004F40006D1804B1B687F4A43F4803313602EE09F
:100504007B685B68002B0CD17A4B1B68794A23F417
:1005140080331360774B1B68764A23F4802313607F
:100524001DE07B685B68B3F5A02F0CD1714B1B6891
:10053400704A43F4802313606E4B1B686D4A43F486
:10054400803313600BE06B4B1B686A4A23F48033DF
:100554001360684B1B68674A23F4802313607B682D
:100564005B68002B13D0FFF789FF386108E0FFF7C1
:1005740085FF02463B69D31A642B01D90323E1E1C9
:100584005C4B1B6803F40033002BF0D014E0FFF73E
:1005940075FF386108E0FFF771FF02463B69D31A23
:1005A400642B01D90323CDE1524B1B6803F40033C0
:1005B400002BF0D100E000BF7B681B6803F002034E
:1005C400002B63D04B4B5B6803F00C03002B0BD068
:1005D400484B5B6803F00C03082B1CD1454B5B684C
:1005E40003F48033002B16D1424B1B6803F0020343
:1005F400002B05D07B681B69012B01D00123A1E1ED
:100604003C4B1B6823F0F8027B685B69DB003949CB
:1006140013430B603AE07B681B69002B20D0364BF8
:1006240001221A60FFF72AFF386108E0FFF726FF6E
:1006340002463B69D31A022B01D9032382E12D4BD5
:100644001B6803F00203002BF0D02A4B1B6823F035
:10065400F8027B685B69DB00264913430B6015E0F5
:10066400254B00221A60FFF709FF386108E0FFF705
:1006740005FF02463B69D31A022B01D9032361E12A
:100684001C4B1B6803F00203002BF0D17B681B6832
:1006940003F00803002B39D07B689B69002B19D029
:1006A400164B01221A60FFF7E9FE386108E0FFF7F4
:1006B400E5FE02463B69D31A022B01D9032341E12B
:1006C4000C4B5B6A03F00203002BF0D0012000F016
:1006D400B1FA1BE0094B00221A60FFF7CFFE386124
:1006E4000EE0FFF7CBFE02463B69D31A022B07D973
:1006F400032327E1001002400000424280044242EA
:10070400924B5B6A03F00203002BEAD17B681B68FF
:1007140003F00403002B00F0A6800023FB758B4B31
:10072400DB6903F08053002B0DD1884BDB69874ACA
:1007340043F08053D361854BDB6903F08053FB6046
:10074400FB680123FB75824B1B6803F48073002B49
:1007540018D17F4B1B687E4A43F480731360FFF704
:100764008DFE386108E0FFF789FE02463B69D31A23
:10077400642B01D90323E5E0754B1B6803F48073F4
:10078400002BF0D07B68DB68012B06D16F4B1B6A12
:100794006E4A43F0010313622DE07B68DB68002B93
:1007A4000CD16A4B1B6A694A23F001031362674B3D
:1007B4001B6A664A23F0040313621CE07B68DB684F
:1007C400052B0CD1614B1B6A604A43F0040313628E
:1007D4005E4B1B6A5D4A43F0010313620BE05B4B03
:1007E4001B6A5A4A23F001031362584B1B6A574A87
:1007F40023F0040313627B68DB68002B15D0FFF73A
:100804003DFE38610AE0FFF739FE02463B69D31A20
:1008140041F28832934201D9032393E04B4B1B6A84
:1008240003F00203002BEED014E0FFF727FE38613B
:100834000AE0FFF723FE02463B69D31A41F28832ED
:10084400934201D903237DE0404B1B6A03F002036A
:10085400002BEED1FB7D012B05D13C4BDB693B4AE0
:1008640023F08053D3617B68DB69002B69D0374B5D
:100874005B6803F00C03082B61D07B68DB69022BF7
:1008840046D1344B00221A60FFF7F8FD386108E0C6
:10089400FFF7F4FD02463B69D31A022B01D9032367
:1008A40050E02A4B1B6803F00073002BF0D17B68E7
:1008B4001B6AB3F5803F08D1244B5B6823F40032F4
:1008C4007B689B68214913434B60204B5B6823F48E
:1008D40074127B68196A7B685B6A0B431B49134378
:1008E4004B601C4B01221A60FFF7C8FD386108E019
:1008F400FFF7C4FD02463B69D31A022B01D9032337
:1009040020E0124B1B6803F00073002BF0D018E0BA
:10091400104B00221A60FFF7B1FD386108E0FFF7C1
:10092400ADFD02463B69D31A022B01D9032309E02A
:10093400064B1B6803F00073002BF0D101E0012388
:1009440000E0002318461837BD4680BD0010024061
:10095400007000406000424280B584B000AF78600F
:1009640039600023FB607E4B1B6803F007033A6881
:100974009A4210D97A4B1B6823F0070278493B68E6
:1009840013430B60764B1B6803F007033A689A42E3
:1009940001D00123E0E07B681B6803F00203002B15
:1009A40020D07B681B6803F00403002B05D06D4B3B
:1009B4005B686C4A43F4E06353607B681B6803F034
:1009C4000803002B05D0674B5B68664A43F4605309
:1009D4005360644B5B6823F0F0027B689B68614959
:1009E40013434B607B681B6803F00103002B6AD040
:1009F4007B685B68012B07D15A4B1B6803F40033F7
:100A0400002B15D10123A7E07B685B68022B07D17B
:100A1400544B1B6803F00073002B09D101239BE0A6
:100A2400504B1B6803F00203002B01D1012393E018
:100A34004C4B5B6823F003027B685B6849491343B2
:100A44004B60FFF71BFDF8607B685B68012B12D1DC
:100A54000AE0FFF713FD0246FB68D31A41F288321D
:100A6400934201D9032377E03E4B5B6803F00C0308
:100A7400042BEED127E07B685B68022B1DD10AE0D2
:100A8400FFF7FCFC0246FB68D31A41F2883293421A
:100A940001D9032360E0334B5B6803F00C03082B9C
:100AA400EED110E0FFF7EAFC0246FB68D31A41F2EC
:100AB4008832934201D903234EE02A4B5B6803F04A
:100AC4000C03002BEED1264B1B6803F007033A6896
:100AD4009A4210D2224B1B6823F0070220493B683C
:100AE40013430B601E4B1B6803F007033A689A42DA
:100AF40001D0012330E07B681B6803F00403002B62
:100B040008D0184B5B6823F4E0627B68DB68154906
:100B140013434B607B681B6803F00803002B09D068
:100B2400104B5B6823F460527B681B69DB000D4942
:100B340013434B6000F01CF801460A4B5B681B0929
:100B440003F00F03084AD35C21FA03F3074A136046
:100B54000020FFF751FC002318461037BD4680BD26
:100B64000020024000100240740F0008080000201A
:100B740090B48AB000AF2A4B3C1D0FCB84E80F0021
:100B8400284B1B883B800023FB610023BB610023AF
:100B94007B6200237B6100233B62234B5B68FB6128
:100BA400FB6903F00C03042B02D0082B03D02DE0C7
:100BB4001E4B3B622DE0FB699B0C03F00F0307F116
:100BC4002802134413F8243C7B61FB6903F480334B
:100BD400002B13D0144B5B685B0C03F0010307F18B
:100BE4002802134413F8283CBB617B690F4A02FBBB
:100BF40003F2BB69B2FBF3F37B6204E07B690C4A4A
:100C040002FB03F37B627B6A3B6202E0074B3B62BD
:100C140000BF3B6A18462837BD4690BC704700BFEA
:100C2400600F0008700F00080010024000127A00E4
:100C340000093D0080B485B000AF78600A4B1B68A2
:100C44000A4AA2FB03235B0A7A6802FB03F3FB60F4
:100C540000BFFB685A1EFA60002BF9D100BF14379D
:100C6400BD4680BC704700BF08000020D34D621011
:100C740080B485B000AF78607B6803F00703FB6045
:100C84000C4BDB68BB60BA684FF6FF031340BB60D4
:100C9400FB681A02BB68134343F0BF6343F4003399
:100CA400BB60044ABB68D36000BF1437BD4680BC38
:100CB400704700BF00ED00E080B400AF044BDB6878
:100CC4001B0A03F007031846BD4680BC704700BFEB
:100CD40000ED00E080B483B000AF03463960FB71DF
:100CE40097F90730002B0BDA3B68DAB20C49FB7931
:100CF40003F00F03043B1201D2B20B441A7609E04D
:100D04003B68DAB2074997F907301201D2B20B44B3
:100D140083F8002300BF0C37BD4680BC704700BF7A
:100D240000ED00E000E100E080B489B000AFF860BD
:100D3400B9607A60FB6803F00703FB61FB69C3F1E8
:100D44000703042B28BF0423BB61FB690433062B70
:100D540002D9FB69033B00E000237B614FF0FF32C3
:100D6400BB6902FA03F3DA43BB681A407B699A4011
:100D74004FF0FF317B6901FA03F3D9437B680B40E1
:100D8400134318462437BD4680BC704780B582B0F3
:100D940000AF78607B68013BB3F1807F01D301230E
:100DA4000FE00A4A7B68013B53600F214FF0FF308C
:100DB400FFF790FF054B00229A60044B07221A604C
:100DC400002318460837BD4680BD00BF10E000E090
:100DD40080B582B000AF78607868FFF749FF00BF44
:100DE4000837BD4680BD80B586B000AF0346B96004
:100DF4007A60FB7300237B61FFF75EFF78617A689A
:100E0400B9687869FFF790FF024697F90F301146E9
:100E14001846FFF75FFF00BF1837BD4680BD80B599
:100E240082B000AF78607868FFF7B0FF03461846D9
:100E34000837BD4680BD000080B400AF154B1B6869
:100E4400144A43F001031360124B5A681149124BC0
:100E540013404B600F4B1B680E4A23F0847323F43A
:100E6400803313600B4B1B680A4A23F480231360FE
:100E7400084B5B68074A23F4FE035360054B4FF4A9
:100E84001F029A60054B4FF000629A6000BFBD4696
:100E940080BC7047001002400000FFF800ED00E045
:100EA400002103E00B4B5B58435004310A480B4BC1
:100EB40042189A42F6D30A4A02E0002342F8043B5D
:100EC400084B9A42F9D3FFF7B7FF00F00FF8FFF78A
:100ED400A7F970478C0F0008000000200C000020C8
:100EE4000C0000202C000020FEE7000070B5002656
:100EF4000C4D0D4C641BA410A64209D100F022F83D
:100F040000260A4D0A4C641BA410A64205D170BDEC
:100F140055F8043B98470136EEE755F8043B9847EB
:100F24000136F2E7840F0008840F0008840F0008DC
:100F3400880F000803460244934200D1704703F827
:100F4400011BF9E7F8B500BFF8BC08BC9E46704722
:0C0F5400F8B500BFF8BC08BC9E46704712
:100F600002030405060708090A0B0C0D0E0F1010EA
:100F70000102000000000000000000000102030464
:040F8000060708094F
:040F84000902000856
:040F8800E501000877
:0C0F8C00100000000100000000A24A0458
:0400000508000EA53C
:00000001FF
